S0190000456C656374726963616C204865617465722E737265639A
S11300000C9431000C94DC040C9405050C942E051E
S11300100C944E000C944E000C94A6060C945406BA
S11300200C947D060C942B060C9402060C94D905B2
S11300300C944E000C944E000C944E000C944E0004
S11300400C944E000C944E000C944E000C944E00F4
S11300500C944E006105630568056A057205770511
S1130060790511241FBECFE5D8E0DEBFCDBF10E077
S1130070A0E6B0E0E8EEFFE002C005900D92AC38D7
S1130080B107D9F720E0ACE8B0E001C01D92AE3D65
S1130090B207E1F70E9492020C94F2070C9400005C
S11300A0813041F028F0823039F43E9A3F9A04C0FE
S11300B03E9801C03E9A3F9886B1887F86B986B142
S11300C06770682B66B93598379A089597B1907E12
S11300D097B997B1892B87B9369A3699FECF84B1EF
S11300E095B10895CF93DF93D82FC62F0E94E306CE
S11300F061E084E50E9410078D2F0E94FE068C2F7C
S11301000E94FE06DF91CF910C94FB06CF93C82F7B
S11301100E94E30661E084E50E9410078C2F0E9490
S1130120FE060E94EF0660E084E50E9410070E942C
S11301303407C82F0E94FB068C2FCF91089581E0CD
S11301400E9466009C01A8E8B3E10E94E307DC0179
S1130150CB012AE0B695A795979587952A95D1F76F
S11301606AE070E00E94C907862F0895CF93C82FD4
S113017061E087E00E94B00360E086E00E94B00383
S11301808C2F6AE00E94BD07C92FE82FF0E0EF59D9
S1130190FF4F608181E00E944E048FEC97E001974D
S11301A0F1F700C0000061E086E00E94B00360E067
S11301B087E00E94B003EC2FF0E0EF59FF4F60811D
S11301C081E00E944E048FEC97E00197F1F700C0A4
S11301D00000CF91089561E087E00E94B00360E0E1
S11301E086E00E94B00360E081E00E944E048FEC40
S11301F097E00197F1F700C0000061E086E00E94FB
S1130200B00360E087E00E94B00360E081E00E94F8
S11302104E048FEC97E00197F1F700C000000895B9
S1130220CF93DF93C091DB00C130D1F5D091DD00D5
S1130230D13089F48091DC000E94B6008091910055
S113024090919200883E23E09207F1F41092DD0031
S1130250D093900014C0D1112BC0809190008111D3
S113026019C08091DC000E94B600809191009091A9
S11302709200883E23E0920739F4C09390001092D4
S113028092001092910014C0019690939200809372
S113029091000EC08091DA00DF91CF910C94B600EA
S11302A0C11106C010929000DF91CF910C94EB0025
S11302B0DF91CF9108958091DD00811107C08CE317
S11302C08093600081E08093DD0019C08130B9F42F
S11302D08BE10E943104811106C0809160008C344E
S11302E010F48B5F0AC08CE10E943104811107C0B5
S11302F080916000833218F0855080936000609193
S113030060006093DC0086E00C9472008BE10E9434
S11303103104811103C00E945B0106C08CE10E947C
S113032031048823C1F308958BE10E9431048823AA
S1130330D9F38CE10E9431048823B1F3089581E05C
S11303408093DB0086E00E9486008093DC000895A1
S11303500E9441071092DB001092DD000E94EB0026
S113036082E00C948C058AE10E9431048823D9F33D
S11303708091DB00811102C00C949F01813011F443
S11303800C94A8010895CF93DF930E949F00C82F77
S1130390D0E0CF30D105C8F1CE010F97419710F4CA
S11303A0219733C0CE018097429710F422972DC035
S11303B0CE01C297429710F4239727C0CE018454EC
S11303C09109429710F4249720C0CE0186559109D3
S11303D0099710F4259719C061E08FE10E94B003DA
S11303E080918E0090918F00883E23E0920741F423
S11303F082E00E948C0510928F0010928E0005C03E
S1130400019690938F0080938E0080918C00909140
S11304108D008C0F9D1F90938D0080938C006091B4
S11304208E0070918F006A30710509F070C00E94CF
S1130430C907CB010A970A9718F4615071093AC0A9
S1130440CB0144970A9718F46250710933C0CB0169
S11304504E970A9718F4635071092CC0CB01889702
S11304600A9718F46450710925C0CB01C2970A9702
S113047018F4655071091EC0CB01CC970A9718F483
S11304806650710917C0CB01865491090A9718F474
S1130490675071090FC0CB01805591090A9718F470
S11304A06850710907C0CB018A5591090A9710F465
S11304B06950710970938D0060938C008091DC0009
S11304C090E020918C0030918D00AC014550510991
S11304D02417350710F461E00AC0059660E082171E
S11304E0930728F48DE10E94B00361E004C08DE11C
S11304F00E94B00360E08EE10E94B00310928F006E
S113050010928E0010928D0010928C0006C06F5FC6
S11305107F4F70938F0060938E00C093DA00DF9159
S1130520CF91089578940E945E0466E081E00E9471
S1130530500042E060E080E00E94CF0660E080E08E
S11305400E94810463EB71E080E00E94C70480E0B4
S11305500E9471040E9445070E94A80140E064E1E2
S113056083EC91E00E94550740E064E086E891E066
S11305700E94550740E064E080E191E00E94550745
S113058040E064E082E597E00E9455070E9450072E
S11305900E947307FDCF982F969596959695877030
S11305A0613009F441C020F0623009F489C0089533
S11305B0913099F028F09230E9F0933041F10895A8
S11305C04AB321E030E0B90102C0660F771F8A9573
S11305D0E2F7CB01842B8ABB089547B321E030E0D6
S11305E0B90102C0660F771F8A95E2F7CB01842B0D
S11305F087BB089544B321E030E0B90102C0660F1F
S1130600771F8A95E2F7CB01842B84BB089541B30D
S113061021E030E0B90102C0660F771F8A95E2F746
S1130620CB01842B81BB08959130B9F028F092302E
S113063029F19330A1F108954AB321E030E0B901E2
S113064002C0660F771F8A95E2F7CB018095942F3D
S113065098239ABB9BB389234BC047B321E030E076
S1130660B90102C0660F771F8A95E2F7CB01809526
S1130670942F982397BB98B389234CC044B321E0AB
S113068030E0B90102C0660F771F8A95E2F7CB010B
S11306908095942F982394BB95B389234DC044B37C
S11306A021E030E0B90102C0660F771F8A95E2F7B6
S11306B0CB018095942F982394BB92B389234EC089
S11306C09130C1F028F0923039F19330B9F10895A6
S11306D04AB321E030E0B90102C0660F771F8A9562
S11306E0E2F7CB01962F909594239ABB9BB3892B69
S11306F08BBB089547B321E030E0B90102C0660F17
S1130700771F8A95E2F7CB01962F9095942397BB98
S113071098B3892B88BB089544B321E030E0B90134
S113072002C0660F771F8A95E2F7CB01962F90954A
S1130730942394BB95B3892B85BB089544B321E0DE
S113074030E0B90102C0660F771F8A95E2F7CB014A
S1130750962F9095942394BB92B3892B82BB0895D2
S1130760982F96959695969587706130C1F591303E
S113077091F028F09230D9F0933029F108954BB3D9
S113078021E030E0B90102C0660F771F8A95E2F7D5
S1130790CB01842B3AC048B321E030E0B90102C058
S11307A0660F771F8A95E2F7CB01842B3CC045B3D3
S11307B021E030E0B90102C0660F771F8A95E2F7A5
S11307C0CB01842B3EC042B321E030E0B90102C02A
S11307D0660F771F8A95E2F7CB01842B40C0611125
S11307E03FC09130A1F028F09230F9F0933059F1E4
S11307F008954BB321E030E0B90102C0660F771FC2
S11308008A95E2F7CB01809584238BBB089548B386
S113081021E030E0B90102C0660F771F8A95E2F744
S1130820CB018095842388BB089545B321E030E053
S1130830B90102C0660F771F8A95E2F7CB01809554
S1130840842385BB089542B321E030E0B90102C09E
S1130850660F771F8A95E2F7CB018095842382BBCC
S11308600895282F2770869586958695813049F0BE
S113087030F0823041F0833079F480B305C089B31D
S113088003C086B301C083B390E002C095958795F9
S11308902A95E2F7982F9170892F0895813041F0BD
S11308A028F0823039F0833039F008956BBB089515
S11308B068BB089565BB089562BB08950F931F93A9
S11308C0CF930BE610E0C0E0F80161918F018C2F0B
S11308D00E94CB02CF5FC032B9F7CF911F910F9125
S11308E00895813039F018F0823039F008958BB7CB
S11308F0806405C08BB7806802C08BB780628BBFF1
S113090008958130F1F018F08230B1F1089561302A
S113091049F028F0623061F0633069F0089585B7DA
S11309208E7F02C085B7816085BF85B78D7F22C069
S113093085B78E7F02C085B7816085BF85B7826029
S113094019C0613049F028F0623061F0633069F019
S1130950089585B78B7F02C085B7846085BF85B74E
S1130960877F08C085B78B7F02C085B7846085BF49
S113097085B7886085BF0895623029F0633019F423
S113098084B7806402C084B78F7B84BF08958130AC
S113099049F018F0823059F00895709398006093EC
S11309A0970008957093960060939500089570934E
S11309B094006093930008951F920F920FB60F92C4
S11309C011242F933F934F935F936F937F938F9350
S11309D09F93AF93BF93EF93FF93E0919700F091B0
S11309E09800309709F00995FF91EF91BF91AF916D
S11309F09F918F917F916F915F914F913F912F9133
S1130A000F900FBE0F901F9018951F920F920FB664
S1130A100F9211242F933F934F935F936F937F9380
S1130A208F939F93AF93BF93EF93FF93E0919500C0
S1130A30F0919600309709F00995FF91EF91BF91DD
S1130A40AF919F918F917F916F915F914F913F9162
S1130A502F910F900FBE0F901F9018951F920F9219
S1130A600FB60F9211242F933F934F935F936F937D
S1130A707F938F939F93AF93BF93EF93FF93E091F3
S1130A809300F0919400309709F00995FF91EF914C
S1130A90BF91AF919F918F917F916F915F914F9192
S1130AA03F912F910F900FBE0F901F90189590E0DB
S1130AB08730910530F5FC01E65DFF4F85B70C9456
S1130AC0DD078F7E01C0806185BF85B78F7D06C03D
S1130AD08F7E01C0806185BF85B7806285BF85B781
S1130AE08F7B0EC08F7E85BF85B78F7D06C08F7EBE
S1130AF001C0806185BF85B7806285BF85B780648A
S1130B0085BF089585B7806885BF089585B78F77B9
S1130B1085BF0895889508950E945705F8940E940A
S1130B20820578940E948A050C948605813059F0D8
S1130B3038F0823071F0833091F483B780640BC055
S1130B4083B78F7B02C083B7806483BF83B7877FFB
S1130B5005C083B78F7B83BF83B7886083BF83B7A8
S1130B60887F83BF83B7682B63BF413049F028F087
S1130B70423061F0433069F0089583B78F7E02C03C
S1130B8083B7806183BF83B78F7D08C083B78F7EAF
S1130B9002C083B7806183BF83B7806283BF089537
S1130BA089B7816089BF08959093A2008093A100C2
S1130BB008951F920F920FB60F9211242F933F9313
S1130BC04F935F936F937F938F939F93AF93BF9351
S1130BD0EF93FF93E091A100F091A200309709F008
S1130BE00995FF91EF91BF91AF919F918F917F9163
S1130BF06F915F914F913F912F910F900FBE0F9086
S1130C001F9018951F920F920FB60F9211242F93D5
S1130C103F934F935F936F937F938F939F93AF9380
S1130C20BF93EF93FF93E091A300F091A40030975A
S1130C3009F00995FF91EF91BF91AF919F918F9129
S1130C407F916F915F914F913F912F910F900FBEC4
S1130C500F901F9018951F920F920FB60F921124A8
S1130C602F933F934F935F936F937F938F939F93B0
S1130C70AF93BF93EF93FF93E0919F00F091A00097
S1130C80309709F00995FF91EF91BF91AF919F9132
S1130C908F917F916F915F914F913F912F910F9021
S1130CA00FBE0F901F9018951F920F920FB60F92C0
S1130CB011242F933F934F935F936F937F938F935D
S1130CC09F93AF93BF93EF93FF93E0919D00F091B7
S1130CD09E00309709F00995FF91EF91BF91AF9174
S1130CE09F918F917F916F915F914F913F912F9140
S1130CF00F900FBE0F901F9018951F920F920FB672
S1130D000F9211242F933F934F935F936F937F938D
S1130D108F939F93AF93BF93EF93FF93E0919B00C7
S1130D20F0919C00309709F00995FF91EF91BF91E4
S1130D30AF919F918F917F916F915F914F913F916F
S1130D402F910F900FBE0F901F9018951F920F9226
S1130D500FB60F9211242F933F934F935F936F938A
S1130D607F938F939F93AF93BF93EF93FF93E09100
S1130D709900F0919A00309709F00995FF91EF914D
S1130D80BF91AF919F918F917F916F915F914F919F
S1130D903F912F910F900FBE0F901F90189598E4DC
S1130DA090B9662331F0613041F492B1440F9160FF
S1130DB002C092B1440F492B42B994E496BF91B159
S1130DC0892381B9089584EA86BF06B607FEFDCF5C
S1130DD081B1887F883011F080E00895089584EA15
S1130DE086BF06B607FEFDCF81B1887F803111F042
S1130DF080E00895089584E986BF089583B984E85E
S1130E0086BF06B607FEFDCF81B1887F883221F008
S1130E10803321F083E0089581E0089582E008950D
S1130E20662321F0613029F4880F02C0880F8160A5
S1130E3083B984E886BF06B607FEFDCF81B1887FFB
S1130E40662339F0613059F4883151F0803251F41D
S1130E5004C0803429F0883429F482E00895089588
S1130E6081E0089583E0089584E886BF06B607FE0E
S1130E70FDCF83B10895886091B5986191BD81BD1E
S1130E80089588E181BD11BC089540E062E080E0EE
S1130E900E9496058CE982BF8AEA97E00C94D405F7
S1130EA00C94D00580E00C948C059C018CEF860F8B
S1130EB08131A8F49091A6009B3098F485E0989F26
S1130EC0F0011124E955FF4F318320834483628369
S1130ED081E083839F5F9093A60080E0089582E081
S1130EE0089583E008950F931F93CF93DF9310E049
S1130EF005E08091A600181770F4019FE001112409
S1130F00C955DF4F8C81813021F4E881F98109953D
S1130F101C821F5FEECFDF91CF911F910F91089537
S1130F200E9441073091A600E7EAF0E090E021E05A
S1130F30931779F08481823049F083814281841748
S1130F4018F02383248302C08F5F83839F5F3596C9
S1130F50EFCF089582E00E943B078CE982BF809125
S1130F60A5008F5F8093A5008091A500823320F0B7
S1130F701092A5000C9490070895991B79E004C081
S1130F80991F961708F0961B881F7A95C9F78095C4
S1130F900895AA1BBB1B51E107C0AA1FBB1FA617BC
S1130FA0B70710F0A61BB70B881F991F5A95A9F70E
S1130FB080959095BC01CD010895EE0FFF1F05901B
S1130FC0F491E02D0994A29FB001B39FC001A39FA7
S1130FD0700D811D1124911DB29F700D811D11246E
S10B0FE0911D0895F894FFCF60
S1130FE83C3F065B4F666D7D077F6F010101000082
S1130FF800000000000000000000000000000000E5
S10F1008000000000002020200000000D2
S9030000FC
